{
  "_format": "hh-sol-artifact-1",
  "contractName": "FBB",
  "sourceName": "contracts/FBB.sol",
  "abi": [
    {
      "inputs": [
        {
          "internalType": "address",
          "name": "fbtToken",
          "type": "address"
        }
      ],
      "stateMutability": "nonpayable",
      "type": "constructor"
    },
    {
      "anonymous": false,
      "inputs": [
        {
          "indexed": true,
          "internalType": "address",
          "name": "owner",
          "type": "address"
        },
        {
          "indexed": true,
          "internalType": "address",
          "name": "approved",
          "type": "address"
        },
        {
          "indexed": true,
          "internalType": "uint256",
          "name": "tokenId",
          "type": "uint256"
        }
      ],
      "name": "Approval",
      "type": "event"
    },
    {
      "anonymous": false,
      "inputs": [
        {
          "indexed": true,
          "internalType": "address",
          "name": "owner",
          "type": "address"
        },
        {
          "indexed": true,
          "internalType": "address",
          "name": "operator",
          "type": "address"
        },
        {
          "indexed": false,
          "internalType": "bool",
          "name": "approved",
          "type": "bool"
        }
      ],
      "name": "ApprovalForAll",
      "type": "event"
    },
    {
      "anonymous": false,
      "inputs": [
        {
          "indexed": true,
          "internalType": "address",
          "name": "to",
          "type": "address"
        },
        {
          "indexed": false,
          "internalType": "uint8",
          "name": "boxType",
          "type": "uint8"
        },
        {
          "indexed": false,
          "internalType": "uint256",
          "name": "tokenId",
          "type": "uint256"
        }
      ],
      "name": "MintBirdBox",
      "type": "event"
    },
    {
      "anonymous": false,
      "inputs": [
        {
          "indexed": true,
          "internalType": "address",
          "name": "from",
          "type": "address"
        },
        {
          "indexed": true,
          "internalType": "address",
          "name": "to",
          "type": "address"
        },
        {
          "indexed": true,
          "internalType": "uint256",
          "name": "tokenId",
          "type": "uint256"
        }
      ],
      "name": "Transfer",
      "type": "event"
    },
    {
      "inputs": [
        {
          "internalType": "address",
          "name": "to",
          "type": "address"
        },
        {
          "internalType": "uint256",
          "name": "tokenId",
          "type": "uint256"
        }
      ],
      "name": "approve",
      "outputs": [],
      "stateMutability": "nonpayable",
      "type": "function"
    },
    {
      "inputs": [
        {
          "internalType": "address",
          "name": "owner",
          "type": "address"
        }
      ],
      "name": "balanceOf",
      "outputs": [
        {
          "internalType": "uint256",
          "name": "",
          "type": "uint256"
        }
      ],
      "stateMutability": "view",
      "type": "function"
    },
    {
      "inputs": [],
      "name": "baseURI",
      "outputs": [
        {
          "internalType": "string",
          "name": "",
          "type": "string"
        }
      ],
      "stateMutability": "view",
      "type": "function"
    },
    {
      "inputs": [
        {
          "internalType": "uint256",
          "name": "tokenId",
          "type": "uint256"
        }
      ],
      "name": "getApproved",
      "outputs": [
        {
          "internalType": "address",
          "name": "",
          "type": "address"
        }
      ],
      "stateMutability": "view",
      "type": "function"
    },
    {
      "inputs": [],
      "name": "getOwnerNFT",
      "outputs": [
        {
          "components": [
            {
              "internalType": "uint256",
              "name": "tokenId",
              "type": "uint256"
            },
            {
              "internalType": "address payable",
              "name": "owner",
              "type": "address"
            }
          ],
          "internalType": "struct FBB.NFTItem[]",
          "name": "",
          "type": "tuple[]"
        }
      ],
      "stateMutability": "view",
      "type": "function"
    },
    {
      "inputs": [
        {
          "internalType": "address",
          "name": "owner",
          "type": "address"
        },
        {
          "internalType": "address",
          "name": "operator",
          "type": "address"
        }
      ],
      "name": "isApprovedForAll",
      "outputs": [
        {
          "internalType": "bool",
          "name": "",
          "type": "bool"
        }
      ],
      "stateMutability": "view",
      "type": "function"
    },
    {
      "inputs": [
        {
          "internalType": "uint8",
          "name": "boxType",
          "type": "uint8"
        }
      ],
      "name": "mintBirdBox",
      "outputs": [
        {
          "internalType": "string",
          "name": "",
          "type": "string"
        }
      ],
      "stateMutability": "nonpayable",
      "type": "function"
    },
    {
      "inputs": [],
      "name": "name",
      "outputs": [
        {
          "internalType": "string",
          "name": "",
          "type": "string"
        }
      ],
      "stateMutability": "view",
      "type": "function"
    },
    {
      "inputs": [
        {
          "internalType": "uint256",
          "name": "tokenId",
          "type": "uint256"
        }
      ],
      "name": "ownerOf",
      "outputs": [
        {
          "internalType": "address",
          "name": "",
          "type": "address"
        }
      ],
      "stateMutability": "view",
      "type": "function"
    },
    {
      "inputs": [
        {
          "internalType": "address",
          "name": "from",
          "type": "address"
        },
        {
          "internalType": "address",
          "name": "to",
          "type": "address"
        },
        {
          "internalType": "uint256",
          "name": "tokenId",
          "type": "uint256"
        }
      ],
      "name": "safeTransferFrom",
      "outputs": [],
      "stateMutability": "nonpayable",
      "type": "function"
    },
    {
      "inputs": [
        {
          "internalType": "address",
          "name": "from",
          "type": "address"
        },
        {
          "internalType": "address",
          "name": "to",
          "type": "address"
        },
        {
          "internalType": "uint256",
          "name": "tokenId",
          "type": "uint256"
        },
        {
          "internalType": "bytes",
          "name": "_data",
          "type": "bytes"
        }
      ],
      "name": "safeTransferFrom",
      "outputs": [],
      "stateMutability": "nonpayable",
      "type": "function"
    },
    {
      "inputs": [
        {
          "internalType": "address",
          "name": "operator",
          "type": "address"
        },
        {
          "internalType": "bool",
          "name": "approved",
          "type": "bool"
        }
      ],
      "name": "setApprovalForAll",
      "outputs": [],
      "stateMutability": "nonpayable",
      "type": "function"
    },
    {
      "inputs": [
        {
          "internalType": "string",
          "name": "_baseURI",
          "type": "string"
        }
      ],
      "name": "setBaseURI",
      "outputs": [],
      "stateMutability": "nonpayable",
      "type": "function"
    },
    {
      "inputs": [
        {
          "internalType": "bytes4",
          "name": "interfaceId",
          "type": "bytes4"
        }
      ],
      "name": "supportsInterface",
      "outputs": [
        {
          "internalType": "bool",
          "name": "",
          "type": "bool"
        }
      ],
      "stateMutability": "view",
      "type": "function"
    },
    {
      "inputs": [],
      "name": "symbol",
      "outputs": [
        {
          "internalType": "string",
          "name": "",
          "type": "string"
        }
      ],
      "stateMutability": "view",
      "type": "function"
    },
    {
      "inputs": [
        {
          "internalType": "uint256",
          "name": "index",
          "type": "uint256"
        }
      ],
      "name": "tokenByIndex",
      "outputs": [
        {
          "internalType": "uint256",
          "name": "",
          "type": "uint256"
        }
      ],
      "stateMutability": "view",
      "type": "function"
    },
    {
      "inputs": [
        {
          "internalType": "address",
          "name": "owner",
          "type": "address"
        },
        {
          "internalType": "uint256",
          "name": "index",
          "type": "uint256"
        }
      ],
      "name": "tokenOfOwnerByIndex",
      "outputs": [
        {
          "internalType": "uint256",
          "name": "",
          "type": "uint256"
        }
      ],
      "stateMutability": "view",
      "type": "function"
    },
    {
      "inputs": [
        {
          "internalType": "uint256",
          "name": "tokenId",
          "type": "uint256"
        }
      ],
      "name": "tokenURI",
      "outputs": [
        {
          "internalType": "string",
          "name": "",
          "type": "string"
        }
      ],
      "stateMutability": "view",
      "type": "function"
    },
    {
      "inputs": [],
      "name": "totalSupply",
      "outputs": [
        {
          "internalType": "uint256",
          "name": "",
          "type": "uint256"
        }
      ],
      "stateMutability": "view",
      "type": "function"
    },
    {
      "inputs": [
        {
          "internalType": "address",
          "name": "from",
          "type": "address"
        },
        {
          "internalType": "address",
          "name": "to",
          "type": "address"
        },
        {
          "internalType": "uint256",
          "name": "tokenId",
          "type": "uint256"
        }
      ],
      "name": "transferFrom",
      "outputs": [],
      "stateMutability": "nonpayable",
      "type": "function"
    }
  ],
  "bytecode": "0x60e0604052602a6080818152906200237f60a03980516200002991600e91602090910190620000f0565b503480156200003757600080fd5b50604051620023a9380380620023a98339810160408190526200005a9162000196565b604080518082018252600981526808c8492a48840849eb60bb1b60208083019182528351808501909452600384526223212160e91b908401528151919291620000a691600091620000f0565b508051620000bc906001906020840190620000f0565b5050600c80546001600160a01b039093166001600160a01b03199384168117909155600d8054909316179091555062000203565b828054620000fe90620001c6565b90600052602060002090601f0160209004810192826200012257600085556200016d565b82601f106200013d57805160ff19168380011785556200016d565b828001600101855582156200016d579182015b828111156200016d57825182559160200191906001019062000150565b506200017b9291506200017f565b5090565b5b808211156200017b576000815560010162000180565b600060208284031215620001a8578081fd5b81516001600160a01b0381168114620001bf578182fd5b9392505050565b600181811c90821680620001db57607f821691505b60208210811415620001fd57634e487b7160e01b600052602260045260246000fd5b50919050565b61216c80620002136000396000f3fe608060405234801561001057600080fd5b506004361061012c5760003560e01c80636352211e116100ad578063a22cb46511610071578063a22cb46514610268578063b88d4fde1461027b578063c87b56dd1461028e578063d7895bf0146102a1578063e985e9c5146102b657600080fd5b80636352211e1461021f5780636c0360eb146102325780636f4385841461023a57806370a082311461024d57806395d89b411461026057600080fd5b806323b872dd116100f457806323b872dd146101c05780632f745c59146101d357806342842e0e146101e65780634f6ccce7146101f957806355f804b31461020c57600080fd5b806301ffc9a71461013157806306fdde0314610159578063081812fc1461016e578063095ea7b31461019957806318160ddd146101ae575b600080fd5b61014461013f366004611cb5565b6102f2565b60405190151581526020015b60405180910390f35b610161610303565b6040516101509190611f3e565b61018161017c366004611d5a565b610395565b6040516001600160a01b039091168152602001610150565b6101ac6101a7366004611c70565b61042f565b005b6009545b604051908152602001610150565b6101ac6101ce366004611b2a565b610545565b6101b26101e1366004611c70565b610576565b6101ac6101f4366004611b2a565b61060c565b6101b2610207366004611d5a565b610627565b6101ac61021a366004611ced565b6106c8565b61018161022d366004611d5a565b6106d4565b61016161074b565b610161610248366004611d8a565b6107d9565b6101b261025b366004611ad7565b610aee565b610161610b75565b6101ac610276366004611c3a565b610b84565b6101ac610289366004611b65565b610b93565b61016161029c366004611d5a565b610bcb565b6102a9610ce9565b6040516101509190611ee6565b6101446102c4366004611af8565b6001600160a01b03918216600090815260056020908152604080832093909416825291909152205460ff1690565b60006102fd82610ea1565b92915050565b60606000805461031290612063565b80601f016020809104026020016040519081016040528092919081815260200182805461033e90612063565b801561038b5780601f106103605761010080835404028352916020019161038b565b820191906000526020600020905b81548152906001019060200180831161036e57829003601f168201915b5050505050905090565b6000818152600260205260408120546001600160a01b03166104135760405162461bcd60e51b815260206004820152602c60248201527f4552433732313a20617070726f76656420717565727920666f72206e6f6e657860448201526b34b9ba32b73a103a37b5b2b760a11b60648201526084015b60405180910390fd5b506000908152600460205260409020546001600160a01b031690565b600061043a826106d4565b9050806001600160a01b0316836001600160a01b031614156104a85760405162461bcd60e51b815260206004820152602160248201527f4552433732313a20617070726f76616c20746f2063757272656e74206f776e656044820152603960f91b606482015260840161040a565b336001600160a01b03821614806104c457506104c481336102c4565b6105365760405162461bcd60e51b815260206004820152603860248201527f4552433732313a20617070726f76652063616c6c6572206973206e6f74206f7760448201527f6e6572206e6f7220617070726f76656420666f7220616c6c0000000000000000606482015260840161040a565b6105408383610ec6565b505050565b61054f3382610f34565b61056b5760405162461bcd60e51b815260040161040a90611fa3565b61054083838361102b565b600061058183610aee565b82106105e35760405162461bcd60e51b815260206004820152602b60248201527f455243373231456e756d657261626c653a206f776e657220696e646578206f7560448201526a74206f6620626f756e647360a81b606482015260840161040a565b506001600160a01b03919091166000908152600760209081526040808320938352929052205490565b61054083838360405180602001604052806000815250610b93565b600061063260095490565b82106106955760405162461bcd60e51b815260206004820152602c60248201527f455243373231456e756d657261626c653a20676c6f62616c20696e646578206f60448201526b7574206f6620626f756e647360a01b606482015260840161040a565b600982815481106106b657634e487b7160e01b600052603260045260246000fd5b90600052602060002001549050919050565b610540600e83836119ae565b6000818152600260205260408120546001600160a01b0316806102fd5760405162461bcd60e51b815260206004820152602960248201527f4552433732313a206f776e657220717565727920666f72206e6f6e657869737460448201526832b73a103a37b5b2b760b91b606482015260840161040a565b600e805461075890612063565b80601f016020809104026020016040519081016040528092919081815260200182805461078490612063565b80156107d15780601f106107a6576101008083540402835291602001916107d1565b820191906000526020600020905b8154815290600101906020018083116107b457829003601f168201915b505050505081565b600d546040516370a0823160e01b81523360048201526060916000916001600160a01b03909116906370a082319060240160206040518083038186803b15801561082257600080fd5b505afa158015610836573d6000803e3d6000fd5b505050506040513d601f19601f8201168201806040525081019061085a9190611d72565b9050620186a0606080600160ff871614156108a15760405180604001604052806006815260200165434f4d4d4f4d60d01b8152509150683635c9adc5dea00000925061091f565b8560ff16600214156108e15760405180604001604052806008815260200167434f534d4554494360c01b8152509150686c6b935b8bbd400000925061091f565b8560ff166003141561091f57604051806040016040528060098152602001684c4547454e4441525960b81b815250915069010f0cf064dd5920000092505b838311156109605760405162461bcd60e51b815260206004820152600e60248201526d62616c616e6365206973206c6f7760901b604482015260640161040a565b600d546040516323b872dd60e01b815233600482015273ce33cb481d14e5320b15d1f1f0b46171c7377e226024820152604481018590526001600160a01b03909116906323b872dd90606401602060405180830381600087803b1580156109c657600080fd5b505af11580156109da573d6000803e3d6000fd5b505050506040513d601f19601f820116820180604052508101906109fe9190611c99565b50610a0d600b80546001019055565b6000610a18600b5490565b6040805180820182528281523360208083018281526000868152600f909252939020915182559151600190910180546001600160a01b0319166001600160a01b03909216919091179055909150610a6f90826111d2565b600e610a7a82611320565b604051602001610a8b929190611df3565b6040516020818303038152906040529150610aa6818361143a565b6040805160ff891681526020810183905233917f346186409433061d7ce777932cea218ea1e1d8e7437702c716a3e9a5adb87105910160405180910390a25095945050505050565b60006001600160a01b038216610b595760405162461bcd60e51b815260206004820152602a60248201527f4552433732313a2062616c616e636520717565727920666f7220746865207a65604482015269726f206164647265737360b01b606482015260840161040a565b506001600160a01b031660009081526003602052604090205490565b60606001805461031290612063565b610b8f3383836114d2565b5050565b610b9d3383610f34565b610bb95760405162461bcd60e51b815260040161040a90611fa3565b610bc5848484846115a1565b50505050565b6000818152600260205260409020546060906001600160a01b0316610c4a5760405162461bcd60e51b815260206004820152602f60248201527f4552433732314d657461646174613a2055524920717565727920666f72206e6f60448201526e3732bc34b9ba32b73a103a37b5b2b760891b606482015260840161040a565b60008281526010602052604081208054610c6390612063565b80601f0160208091040260200160405190810160405280929190818152602001828054610c8f90612063565b8015610cdc5780601f10610cb157610100808354040283529160200191610cdc565b820191906000526020600020905b815481529060010190602001808311610cbf57829003601f168201915b5093979650505050505050565b60606000610cf6600b5490565b905060008060005b83811015610d595733600f6000610d16846001611ff4565b81526020810191909152604001600020600101546001600160a01b03161415610d4757610d44600184611ff4565b92505b80610d518161209e565b915050610cfe565b5060008267ffffffffffffffff811115610d8357634e487b7160e01b600052604160045260246000fd5b604051908082528060200260200182016040528015610dc857816020015b6040805180820190915260008082526020820152815260200190600190039081610da15790505b50905060005b84811015610e985733600f6000610de6846001611ff4565b81526020810191909152604001600020600101546001600160a01b03161415610e8657600f6000610e18836001611ff4565b81526020808201929092526040908101600020815180830190925280548252600101546001600160a01b0316918101919091528251839085908110610e6d57634e487b7160e01b600052603260045260246000fd5b6020908102919091010152610e83600184611ff4565b92505b80610e908161209e565b915050610dce565b50949350505050565b60006001600160e01b0319821663780e9d6360e01b14806102fd57506102fd826115d4565b600081815260046020526040902080546001600160a01b0319166001600160a01b0384169081179091558190610efb826106d4565b6001600160a01b03167f8c5be1e5ebec7d5bd14f71427d1e84f3dd0314c0f7b2291e5b200ac8c7c3b92560405160405180910390a45050565b6000818152600260205260408120546001600160a01b0316610fad5760405162461bcd60e51b815260206004820152602c60248201527f4552433732313a206f70657261746f7220717565727920666f72206e6f6e657860448201526b34b9ba32b73a103a37b5b2b760a11b606482015260840161040a565b6000610fb8836106d4565b9050806001600160a01b0316846001600160a01b03161480610fff57506001600160a01b0380821660009081526005602090815260408083209388168352929052205460ff165b806110235750836001600160a01b031661101884610395565b6001600160a01b0316145b949350505050565b826001600160a01b031661103e826106d4565b6001600160a01b0316146110a25760405162461bcd60e51b815260206004820152602560248201527f4552433732313a207472616e736665722066726f6d20696e636f72726563742060448201526437bbb732b960d91b606482015260840161040a565b6001600160a01b0382166111045760405162461bcd60e51b8152602060048201526024808201527f4552433732313a207472616e7366657220746f20746865207a65726f206164646044820152637265737360e01b606482015260840161040a565b61110f838383611624565b61111a600082610ec6565b6001600160a01b0383166000908152600360205260408120805460019290611143908490612020565b90915550506001600160a01b0382166000908152600360205260408120805460019290611171908490611ff4565b909155505060008181526002602052604080822080546001600160a01b0319166001600160a01b0386811691821790925591518493918716917fddf252ad1be2c89b69c2b068fc378daa952ba7f163c4a11628f55a4df523b3ef91a4505050565b6001600160a01b0382166112285760405162461bcd60e51b815260206004820181905260248201527f4552433732313a206d696e7420746f20746865207a65726f2061646472657373604482015260640161040a565b6000818152600260205260409020546001600160a01b03161561128d5760405162461bcd60e51b815260206004820152601c60248201527f4552433732313a20746f6b656e20616c7265616479206d696e74656400000000604482015260640161040a565b61129960008383611624565b6001600160a01b03821660009081526003602052604081208054600192906112c2908490611ff4565b909155505060008181526002602052604080822080546001600160a01b0319166001600160a01b03861690811790915590518392907fddf252ad1be2c89b69c2b068fc378daa952ba7f163c4a11628f55a4df523b3ef908290a45050565b6060816113445750506040805180820190915260018152600360fc1b602082015290565b8160005b811561136e57806113588161209e565b91506113679050600a8361200c565b9150611348565b60008167ffffffffffffffff81111561139757634e487b7160e01b600052604160045260246000fd5b6040519080825280601f01601f1916602001820160405280156113c1576020820181803683370190505b5090505b8415611023576113d6600183612020565b91506113e3600a866120b9565b6113ee906030611ff4565b60f81b81838151811061141157634e487b7160e01b600052603260045260246000fd5b60200101906001600160f81b031916908160001a905350611433600a8661200c565b94506113c5565b6000828152600260205260409020546001600160a01b03166114b35760405162461bcd60e51b815260206004820152602c60248201527f4552433732314d657461646174613a2055524920736574206f66206e6f6e657860448201526b34b9ba32b73a103a37b5b2b760a11b606482015260840161040a565b6000828152601060209081526040909120825161054092840190611a32565b816001600160a01b0316836001600160a01b031614156115345760405162461bcd60e51b815260206004820152601960248201527f4552433732313a20617070726f766520746f2063616c6c657200000000000000604482015260640161040a565b6001600160a01b03838116600081815260056020908152604080832094871680845294825291829020805460ff191686151590811790915591519182527f17307eab39ab6107e8899845ad3d59bd9653f200f220920489ca2b5937696c31910160405180910390a3505050565b6115ac84848461102b565b6115b88484848461162f565b610bc55760405162461bcd60e51b815260040161040a90611f51565b60006001600160e01b031982166380ac58cd60e01b148061160557506001600160e01b03198216635b5e139f60e01b145b806102fd57506301ffc9a760e01b6001600160e01b03198316146102fd565b61054083838361173c565b60006001600160a01b0384163b1561173157604051630a85bd0160e11b81526001600160a01b0385169063150b7a0290611673903390899088908890600401611ea9565b602060405180830381600087803b15801561168d57600080fd5b505af19250505080156116bd575060408051601f3d908101601f191682019092526116ba91810190611cd1565b60015b611717573d8080156116eb576040519150601f19603f3d011682016040523d82523d6000602084013e6116f0565b606091505b50805161170f5760405162461bcd60e51b815260040161040a90611f51565b805181602001fd5b6001600160e01b031916630a85bd0160e11b149050611023565b506001949350505050565b6001600160a01b0383166117975761179281600980546000838152600a60205260408120829055600182018355919091527f6e1540171b6c0c960b71a7020d9f60077f6af931a8bbf590da0223dacf75c7af0155565b6117ba565b816001600160a01b0316836001600160a01b0316146117ba576117ba83826117f4565b6001600160a01b0382166117d15761054081611891565b826001600160a01b0316826001600160a01b03161461054057610540828261196a565b6000600161180184610aee565b61180b9190612020565b60008381526008602052604090205490915080821461185e576001600160a01b03841660009081526007602090815260408083208584528252808320548484528184208190558352600890915290208190555b5060009182526008602090815260408084208490556001600160a01b039094168352600781528383209183525290812055565b6009546000906118a390600190612020565b6000838152600a6020526040812054600980549394509092849081106118d957634e487b7160e01b600052603260045260246000fd5b90600052602060002001549050806009838154811061190857634e487b7160e01b600052603260045260246000fd5b6000918252602080832090910192909255828152600a9091526040808220849055858252812055600980548061194e57634e487b7160e01b600052603160045260246000fd5b6001900381819060005260206000200160009055905550505050565b600061197583610aee565b6001600160a01b039093166000908152600760209081526040808320868452825280832085905593825260089052919091209190915550565b8280546119ba90612063565b90600052602060002090601f0160209004810192826119dc5760008555611a22565b82601f106119f55782800160ff19823516178555611a22565b82800160010185558215611a22579182015b82811115611a22578235825591602001919060010190611a07565b50611a2e929150611aa6565b5090565b828054611a3e90612063565b90600052602060002090601f016020900481019282611a605760008555611a22565b82601f10611a7957805160ff1916838001178555611a22565b82800160010185558215611a22579182015b82811115611a22578251825591602001919060010190611a8b565b5b80821115611a2e5760008155600101611aa7565b80356001600160a01b0381168114611ad257600080fd5b919050565b600060208284031215611ae8578081fd5b611af182611abb565b9392505050565b60008060408385031215611b0a578081fd5b611b1383611abb565b9150611b2160208401611abb565b90509250929050565b600080600060608486031215611b3e578081fd5b611b4784611abb565b9250611b5560208501611abb565b9150604084013590509250925092565b60008060008060808587031215611b7a578081fd5b611b8385611abb565b9350611b9160208601611abb565b925060408501359150606085013567ffffffffffffffff80821115611bb4578283fd5b818701915087601f830112611bc7578283fd5b813581811115611bd957611bd96120f9565b604051601f8201601f19908116603f01168101908382118183101715611c0157611c016120f9565b816040528281528a6020848701011115611c19578586fd5b82602086016020830137918201602001949094529598949750929550505050565b60008060408385031215611c4c578182fd5b611c5583611abb565b91506020830135611c658161210f565b809150509250929050565b60008060408385031215611c82578182fd5b611c8b83611abb565b946020939093013593505050565b600060208284031215611caa578081fd5b8151611af18161210f565b600060208284031215611cc6578081fd5b8135611af181612120565b600060208284031215611ce2578081fd5b8151611af181612120565b60008060208385031215611cff578182fd5b823567ffffffffffffffff80821115611d16578384fd5b818501915085601f830112611d29578384fd5b813581811115611d37578485fd5b866020828501011115611d48578485fd5b60209290920196919550909350505050565b600060208284031215611d6b578081fd5b5035919050565b600060208284031215611d83578081fd5b5051919050565b600060208284031215611d9b578081fd5b813560ff81168114611af1578182fd5b60008151808452611dc3816020860160208601612037565b601f01601f19169290920160200192915050565b60008151611de9818560208601612037565b9290920192915050565b600080845482600182811c915080831680611e0f57607f831692505b6020808410821415611e2f57634e487b7160e01b87526022600452602487fd5b818015611e435760018114611e5457611e80565b60ff19861689528489019650611e80565b60008b815260209020885b86811015611e785781548b820152908501908301611e5f565b505084890196505b505050505050611ea0611e9a82602f60f81b815260010190565b85611dd7565b95945050505050565b6001600160a01b0385811682528416602082015260408101839052608060608201819052600090611edc90830184611dab565b9695505050505050565b602080825282518282018190526000919060409081850190868401855b82811015611f31578151805185528601516001600160a01b0316868501529284019290850190600101611f03565b5091979650505050505050565b602081526000611af16020830184611dab565b60208082526032908201527f4552433732313a207472616e7366657220746f206e6f6e20455243373231526560408201527131b2b4bb32b91034b6b83632b6b2b73a32b960711b606082015260800190565b60208082526031908201527f4552433732313a207472616e736665722063616c6c6572206973206e6f74206f6040820152701ddb995c881b9bdc88185c1c1c9bdd9959607a1b606082015260800190565b60008219821115612007576120076120cd565b500190565b60008261201b5761201b6120e3565b500490565b600082821015612032576120326120cd565b500390565b60005b8381101561205257818101518382015260200161203a565b83811115610bc55750506000910152565b600181811c9082168061207757607f821691505b6020821081141561209857634e487b7160e01b600052602260045260246000fd5b50919050565b60006000198214156120b2576120b26120cd565b5060010190565b6000826120c8576120c86120e3565b500690565b634e487b7160e01b600052601160045260246000fd5b634e487b7160e01b600052601260045260246000fd5b634e487b7160e01b600052604160045260246000fd5b801515811461211d57600080fd5b50565b6001600160e01b03198116811461211d57600080fdfea26469706673582212205e434ae380f6ebb92c51c9bc40ec0a7abd083da152374381638f5f46c31fa45c64736f6c63430008040033687474703a2f2f3137322e32302e31302e343a383030312f76312f6170692f62697264626f782f6e6674",
  "linkReferences": {},
  "deployedLinkReferences": {}
}